:100000000C94E2060C9429070C9429070C942907F8
:100010000C9429070C9429070C9429070C942907A0
:100020000C9429070C9429070C94BF270C94922850
:100030000C94751E0C9429070C9429070C9429071D
:100040000C9429070C9429070C9429070C94290770
:100050000C9429070C94DD1E0C9429070C94290795
:100060000C9429070C9429070C9429070C94290750
:100070000C9429070C9429070C9429070C94290740
:100080000C9429070C9429070C9429070C94290730
:100090000C9429070C9429070C9429070C94290720
:1000A0000C9429070C9429070C94290729001E0099
:1000B0001F0020002100220023002400250026002C
:1000C00027002D002E004C002A002B0014001A00DF
:1000D0000800150017001C0018000C001200130087
:1000E0002F0030003100000001510400160007000D
:1000F00009000A000B000D000E000F003300340051
:10010000000028000000E10000001D001B000600A8
:1001100019000500110010003600370038000000FB
:10012000E5000251E000E300E200000000000000F2
:100130002C00000000000000E600AE00A800E40073
:10014000000035003A003B003C003D003E003F000F
:10015000400041004200430044004500010000709F
:100160000100AC00AE00AB000100010001004B003B
:100170004A004E00010001000100010000000100E2
:100180000100AA00A900A80001005000510052007F
:100190004F0001000100010001000000010001000A
:1001A000010001000100010001004D0001000100FB
:1001B0000100010001000100010001000100010037
:1001C000000000000000010000000000000001002D
:1001D0000100010001000000010001000100010018
:1001E0000100010001000100010001000100010007
:1001F0000100010001000100327030703170337075
:1002000001000100010001000100010001000100E6
:10021000010000000070347035703670377038702F
:1002200039703A703B7001000100010001000100CB
:1002300000000100010001000100010001000100B7
:1002400001000100010001000100010001000100A6
:10025000010001000100000000000000010000009A
:100260000000000001000100010001000000010089
:100270000100010001000100010001000100010076
:100280000100010001000100010001000100010066
:100290000100010001000100010001000100010056
:1002A0000100010001000100000001000100010047
:1002B0000100010001000100010001000100010036
:1002C0000100010001000000010001000100010027
:1002D0000100010001000100010001000100010016
:1002E0000100010001000100010001000000000008
:1002F00000000100000000000000010001000100FA
:1003000001000000010001000100010001000100E6
:1003100001000100010001000100010001000100D5
:1003200001000100010001000100010001000100C5
:1003300001000100010001000100010001000000B6
:1003400001000100010001000100010001000100A5
:100350000100010001000100010001000000010096
:100360000100010001000100010001000100010085
:100370000100010001000100010001000100010075
:10038000010000000000000001000000000000006B
:100390000100010001000100000001000100010056
:1003A0000100010001000100010001000100010045
:1003B0000100010001000100010001000100010035
:1003C0000100010001000100010001000100010025
:1003D0000100010000000100010001000100010016
:1003E0000100010001000100010001000100010005
:1003F00001000000010001000100010001000100F6
:1004000001000100010001000100010001000100E4
:1004100001000100010001000000000000000100D7
:1004200000000000000001000100010001000000C8
:1004300001000100010001000100010001000100B4
:1004400001000100010001000100010001000100A4
:100450000100010001000100010001000100010094
:100460000100010001000100010000000100010085
:100470000100010001000100010001000100010074
:100480000100010001000100000001000100010065
:100490000100010001000100010001000100010054
:1004A0000100010001000100010001000100000045
:1004B0000000000001000000000000000100010039
:1004C0000100010000000100010001000100010025
:1004D0000100010001000100010001000100010014
:1004E0000100010001000100010001000100010004
:1004F00001000100010001000100010001000100F4
:1005000000000100010001000100010001000100E4
:1005100001000100010001000100010001000000D4
:1005200001000100010001000100010001000100C3
:1005300001000100010001000100010001000100B3
:1005400001000100000000000000010000000000A8
:100550000000010001000100010000000100010095
:100560000100010001000100010001000100010083
:100570000100010001000100010001000100010073
:100580000100010001000100010001000100010063
:100590000100010001000000010001000100010054
:1005A0000100010001000100010001000100010043
:1005B0000100010000000100010001000100010034
:1005C0000100010001000100010001000100010023
:1005D0000100010001000100010000000000000016
:1005E0000100000000000000010001000100010006
:1005F00000000100010001000100010001000100F4
:1006000001000100010001000100010001000100E2
:1006100001000100010001000100010001000100D2
:1006200001000100010001000100010000000100C3
:1006300001000100010001000100010001000100B2
:1006400001000100010001000100000001000100A3
:100650000100010001000100010001000100010092
:100660000100010001000100010001000100010082
:100670000000000000000100000000000000010078
:100680000100010001000000010001000100010063
:100690000100010001000100010001000100010052
:1006A0000100010001000100010001000100010042
:1006B0000100010001000100010001000100010032
:1006C0000100000001000100010001000100010023
:1006D0000100010001000100010001000100010012
:1006E0000000010001000100010001000100010003
:1006F00001000100010001000100010001000100F2
:1007000001000100010000000000000001000000E5
:1007100000000000010001000100010000000100D4
:1007200001000100010001000100010001000100C1
:1007300001000100010001000100010001000100B1
:1007400001000100010001000100010001000100A1
:100750000100010001000100000001000100010092
:100760000100010001000100010001000100010081
:100770000100010001000000010001000100010072
:100780000100010001000100010001000100010061
:100790000100010001000100010001000000000053
:1007A0000000010000000000000001000100010045
:1007B0000100000001000100010001000100010032
:1007C0000100010001000100010001000100010021
:1007D0000100010001000100010001000100010011
:1007E0000100010001000100010001000100000002
:1007F00001000100010001000100010001000100F1
:1008000001000100010001000100010000000100E1
:1008100001000100010001000100010001000100D0
:1008200001000100010001000100010001000100C0
:1008300001000000000000000100000000000000B6
:1008400001000100010001000000010001000100A1
:100850000100010001000100010001000100010090
:100860000100010001000100010001000100010080
:100870000100010001000100010001000100010070
:100880000100010000000100010001000100010061
:100890000100010001000100010001000100010050
:1008A0000100000001000100010001000100010041
:1008B0000100010001000100010001000100010030
:1008C0000100010001000100000000000000010023
:1008D0000000000000000100010001000100000014
:1008E0000100010001000100010001000100010000
:1008F00001000100010001000100010001000100F0
:1009000001000100010001000100010001000100DF
:1009100001000100010001000100000001000100D0
:1009200001000100010001000100010001000100BF
:1009300001000100010001000000010001000100B0
:10094000010001000100010001000100010001009F
:100950000100010001000100010001000100000090
:100960000000000001000000000000000100010084
:100970000100010000000100010001000100010070
:10098000010001000100010001000100010001005F
:10099000010001000100010001000100010001004F
:1009A000010001000100010001000100010001003F
:1009B0000000010001000100010001000100010030
:1009C0000100010001000100010001000100000020
:1009D000010001000100010001000100010001000F
:1009E00001000100010001000100010001000100FF
:1009F00001000100000000000000010000000000F4
:100A000000000100010001000100000064321464D4
:100A10003214783C1E1E140A05000000000101017A
:100A20000202030405050607090A0B0C0E0F11123A
:100A3000141517191B1D1F212325282A2C2F31348B
:100A400036393B3E414346494C4F5255585A5D61F9
:100A500064676A6D707376797C7F8386898C8F92E8
:100A600095989B9EA2A5A7AAADB0B3B6B9BCBEC1CE
:100A7000C4C6C9CBCED0D3D5D7DADCDEE0E2E4E61B
:100A8000E8EAEBEDEEF0F1F3F4F5F6F8F9FAFAFB3B
:100A9000FCFDFDFEFEFEFFFFFFFFFFFFFFFEFEFE73
:100AA000FDFDFCFBFAFAF9F8F6F5F4F3F1F0EEEDE2
:100AB000EBEAE8E6E4E2E0DEDCDAD7D5D3D0CECB71
:100AC000C9C6C4C1BEBCB9B6B3B0ADAAA7A5A29EE3
:100AD0009B9895928F8C898683807C797673706DD4
:100AE0006A6764615D5A5855524F4C494643413ECE
:100AF0003B393634312F2C2A282523211F1D1B1961
:100B000017151412110F0E0C0B0A09070605050420
:100B100003020201010100000000000000000101C9
:100B200001010101010101020202020202020202AC
:100B3000030303030303030304040404040405057B
:100B4000050505060606060607070707080808083C
:100B50000909090A0A0A0A0B0B0B0C0C0C0D0D0DE6
:100B60000E0E0F0F0F101011111112121313141477
:100B7000151516161717181819191A1A1B1C1C1DEB
:100B80001D1E1F1F20202122222324252526272742
:100B900028292A2B2B2C2D2E2F2F30313233343570
:100BA00036363738393A3B3C3D3E3F40414243447C
:100BB000464748494A4B4C4D4F5051525355565752
:100BC000585A5B5C5E5F606263646667696A6C6DFD
:100BD0006E707173747678797B7C7E808183848675
:100BE000888A8B8D8F91929496989A9B9D9FA1A3B2
:100BF000A5A7A9ABADAFB1B3B5B7B9BBBDBFC1C4B4
:100C0000C6C8CACCCFD1D3D6D8DADCDFE1E4E6E877
:100C1000EBEDF0F2F5F7FAFCFF12036B00650079DB
:100C20000062006F00610072006400000016037132
:100C3000006D006B006200750069006C0064006567
:100C400000720000000403090409026D00040100A1
:100C5000A0FA0904000001030101000921110100AB
:100C6000012240000705810308000A090401000170
:100C700003010200092111010001224D0007058234
:100C80000308000A09040200010300000009211101
:100C90000100012236000705830308000A09040346
:100CA00000010300000009211101000122390007A1
:100CB0000584032000011201100100000008EDFE70
:100CC000606001000102000105010906A10105079C
:100CD00019E029E71500250195087501810205082D
:100CE0001901290595057501910295017503910179
:100CF0000507190029F71500250195F875018102EE
:100D0000C005010980A10185021601002603001A11
:100D100081002A8300751095018100C0050C09012E
:100D2000A1018503160100269C021A01002A9C02DB
:100D3000751095018100C005010902A1010901A1F9
:100D40000005091901290515002501950575018181
:100D500002950175038101050109300931158125CD
:100D60007F95027508810609381581257F950175E3
:100D7000088106050C0A38021581257F9501750842
:100D80008106C0C005010906A101050719E029E790
:100D900015002501950875018102950175088101ED
:100DA000050819012905950575019102950175033D
:100DB00091010507190029FF150026FF009506750A
:100DC000088100C011241FBECFEFDAE0DEBFCDBF27
:100DD00004B603FE27C080918C0290918D02A091F1
:100DE0008E02B0918F028730904BA740B04BD1F468
:100DF00010928C0210928D0210928E0210928F022D
:100E000014BE84B7877F84BF0FB6F894A8958091ED
:100E10006000886180936000109260000FBEE0E087
:100E2000F8E3099511E0A0E0B1E0E6EDF7E502C0D6
:100E300005900D92AC33B107D9F722E0ACE3B1E0F5
:100E400001C01D92AC38B207E1F70E940F250C9447
:100E5000E92B0C94000080E090E008950895089537
:100E600081E00895089581E008950C9430070E9470
:100E7000C1162FEF84E39CE0215080409040E1F7C1
:100E800000C000000C94021FFF920F931F93CF939A
:100E9000DF938C01FC01C081D18180918D01811192
:100EA00027C082818823F9F0CE010E943D1CF82ED4
:100EB000682FCE010E94E81BBE018F2D0E94FF0803
:100EC000EC01B8010E943507882331F0B801CE014A
:100ED0000E94300B8111E9C080E0DF91CF911F911A
:100EE0000F91FF900895CE010E94121CF82EE4CFBE
:100EF000CE010E943D1CBE01E1CFF8018281882312
:100F000059F30E943707E8CFF8018281882321F343
:100F100080912502816080932502DECFF8018281D5
:100F20008823D1F20E942D0FD7CFF8018281882328
:100F300099F20E940E0ED0CF882371F20E94260EE5
:100F4000CBCF882349F20E94450EC6CFF80182819B
:100F5000882311F20E947A0EBFCFF8018281882384
:100F600009F4BACF0E94950EB7CFF8018281882389
:100F700009F4B8C00E94F71D811102C00E94D11D62
:100F80000E94141E90E090937D0280937C02FE01EB
:100F9000E350F047E231F105C0F4ED52F84F809193
:100FA0007C020C949B2BF107F307FE07F507F7076C
:100FB000F907FB07FD070008020804080F080608E8
:100FC00008080A080C080E08110880917C0281604C
:100FD00080937C0280917C020E94181E0E94C116A0
:100FE0007BCF8260F5CF8460F3CF8061F1CF8062E8
:100FF000EFCF8064EDCF8068EBCF84608860E8CF6E
:101000008E7FE6CF8D7FE4CF8B7FE2CF8F7EE0CFE8
:101010008F7DDECF8F7BDCCF8F77DACF8B7F877FA3
:10102000D7CF87FB992790F921E0922790FB87F98A
:10103000CFCFF8018281882361F010923E010E9497
:10104000A71E90933D0180933C0182E00E942B14E7
:1010500043CF80913E0181110FC080913C0190915E
:101060003D010E94B31E883C910530F486E20E9447
:10107000001386E20E94DC1382E00E9432142CCF1F
:1010800080913F0181110FC080913C0190913D0101
:101090000E94B31E883C910530F487E20E94001341
:1010A00087E20E94DC1380E2E8CFC633F0E7DF0777
:1010B00009F43BCF78F5C53190E7D907D8F4C230B1
:1010C000E0E7DE0708F051CFC115F0E7DF0709F4CC
:1010D00014CFC130D04709F417CF81E080933E018F
:1010E00080933F01C801DF91CF911F910F91FF9035
:1010F0000C943307C43390E7D90709F40FCFC533F5
:10110000D04759F7F8018281882309F4E5CE0E947F
:10111000230FE2CECA33F0E7DF0709F417CF78F4E4
:10112000F8018281C833F0E7DF0709F40ACF08F439
:1011300003CF882309F4D0CE0E94600ECDCECC33ED
:10114000E0E7DE0709F475CF08F407CFCD33D047C9
:1011500021F6F8018281882309F492CF10923F0191
:101160000E94A71E90933D0180933C0180E26ECFC8
:101170000C94810B279A2F988FEF9FEF9093870005
:10118000809386008AE08093800089E180938100CB
:101190000C94BE220E94BA080C947F0B282F2F9823
:1011A00080918000211108C0877F80938000109279
:1011B0008D0010928C000895886080938000233009
:1011C00039F48FEF9FEF90938D0080938C000895FA
:1011D00083E090E0821B9109880F991F2FEF3FEF6A
:1011E00002C0369527958A95E2F730938D002093BB
:1011F0008C0008950C9432070C94FA080895972FE8
:1012000070E02FE0929F600D711D1124FB019BE4A3
:10121000899FE00DF11D1124EE0FFF1FE455FF4FD4
:10122000859194910895FC01EE0FFF1FE45FF54F47
:101230008591949108950E94FF080E94AE0A81153D
:1012400020E5920708F040C0811530E4930708F0CC
:10125000F9C0883E910518F5803E910508F07DC1E2
:10126000883A910580F4853A910508F086C081306E
:10127000910509F472C120F08430910508F06DC128
:1012800080E090E008958D3B910508F481C0803C9A
:101290009105B0F3805C91090E94130908958115AE
:1012A00040E2940750F4811521E0920708F055C1FF
:1012B000803F910528F390650895811530E39307E9
:1012C00008F0BDC09F70E8CF811545E5940760F533
:1012D000811524E5920708F0E4C0811532E59307F3
:1012E00050F4811541E5940708F4AFC0982F882782
:1012F000816F906A0895282F26952695AC0143703A
:1013000055278115934508F0BDC081E090E002C0EB
:10131000880F991F4A95E2F740E2249F900111241B
:10132000822B932B9C680895803340E7940790F4B8
:10133000803220E7920708F0BFC0811536E5930799
:1013400008F4B4C09C0130562115304108F098CF04
:101350009F70B0C0813320E7920709F4B4C008F44D
:10136000AFC0823340E7940709F4B0C0833390479D
:1013700009F086CF80E093ED0895853A910509F450
:10138000A8C0863A910509F0A7C082E890E40895C4
:10139000883A910509F4A3C0893A910509F4A2C0DD
:1013A0008A3A910509F4A1C08B3A910509F4A0C0CD
:1013B0008C3A910509F49FC08B3B910509F49EC0BE
:1013C0008C3B910509F49DC08D3A910509F49CC0B0
:1013D000803B910509F49BC08E3A910509F49AC0AF
:1013E0008F3A910509F499C0813B910509F498C0A1
:1013F000823B910509F497C0833B910509F496C09F
:10140000843B910509F495C0853B910509F494C08E
:10141000863B910509F493C0873B910509F492C07E
:10142000883B910509F491C0893B910509F490C06E
:101430008A3B910509F48FC080E094E408959927D0
:10144000906C08959F70906A08959C0154E03695C1
:1014500027955A95E1F7922F9370482F437021E01A
:1014600030E002C0220F331F4A95E2F73C68392B67
:1014700086958695837040E2849FC0011124822B5B
:10148000932B089581E090E002C0880F991F4A9540
:10149000E2F740E2249F90011124822B932B9A685B
:1014A0000895982F8827846F906A0895982F882729
:1014B00088279F719062089580529047946D089597
:1014C00080E091ED089580E090ED089580E092ED48
:1014D000089581E890E4089583E890E4089582EE09
:1014E00094E4089589EE94E408958AEE94E40895CE
:1014F00085EB94E4089586EB94E4089583EB94E4FB
:10150000089584EB94E4089587EB94E408958CECBB
:1015100094E408958DEC94E4089583E895E40895A7
:101520008AE895E4089582E995E4089584E995E4CC
:10153000089581E296E4089583E296E4089584E2B2
:1015400096E4089585E296E4089586E296E4089587
:1015500087E296E408958AE296E408958238910538
:1015600049F1B0F48133910509F45AC048F4893245
:10157000910509F450C08A32910509F456C00895C6
:101580008533910509F442C08933910599F0089596
:10159000833E910521F138F4803E910581F0823E31
:1015A0009105A1F00895863E910501F1873E9105D0
:1015B00031F1089520917C022370E1F50895209186
:1015C0007C0220FF12C089E390E0089520917C0204
:1015D00022FF0BC024FF31C080E090E008952091ED
:1015E0007C0222FD2DC024FDF7CF089520917C02BE
:1015F00023FFFBCF24FDF0CF87EE90E008952091EC
:101600007C0223FFF0CF86EE90E0089520917C02CB
:1016100025FD19C0089520917C0225FD17C008956D
:1016200020917C0226FD15C0089520917C0226FDA4
:1016300013C0089580EE90E0089583EE90E0089541
:1016400082EE90E0089589E290E0089585E390E0CD
:1016500008958AE290E0089581E390E0C6CF08956E
:101660000F931F93CF938C01FB018281811106C0E0
:10167000C1E08C2FCF911F910F910895C0914D0122
:10168000C11125C00531104799F70E942F0B81E049
:1016900080934D010E94A71E90934C0180934B01B3
:1016A00010924001109242011092410110924401A7
:1016B0001092430110924601109245011092480188
:1016C0001092470110924A0110924901D2CF8091A5
:1016D0004B0190914C010E94B31E883C910540F64D
:1016E00080914001E82FF0E0EE0FFF1FEF5BFE4F0F
:1016F000118300838F5F80934001C0E0BACF0C94C8
:101700002E070C942F0785B7806885BF85B7806842
:1017100085BFA3E2B1E061E070E08D91E82FE29532
:10172000EF70F0E041A18F709B0101C0220F8A95FC
:10173000EAF7922F9095942391A382A1822B82A302
:1017400081E0A832B80749F7A4E1B1E061E070E0B8
:101750008D91E82FE295EF70F0E041A18F709B0131
:1017600001C0220F8A95EAF7922F9095942391A3B6
:1017700082A1822B82A381E0A332B80749F7E8E572
:10178000F1E0AEE4B1E082E691E0119211921D9297
:101790001D928E179F07C9F70C94CA084F925F924B
:1017A0007F928F929F92AF92BF92CF92DF92EF92F1
:1017B000FF920F931F93CF93DF930EE411E093E218
:1017C000C92E91E0D92EE801EE24E394F12C99245E
:1017D0009394A880B98019821882D6018D916D01E9
:1017E000E82FE295EF70F0E091A18F70970101C0B2
:1017F000220F8A95EAF7892F822B81A382A1822E5C
:101800008094882182A3B0EABA95F1F784E1482E4A
:1018100081E0582E80E090E0D2017D912D01472F8C
:1018200042954F7050E0DA0190967C904881598142
:101830007F70D70102C0AA0FBB1F7A95E2F7BD01E6
:10184000672109F055C0B701082E02C0660F771F47
:101850000A94E2F7462B572B5983488301968F3021
:101860009105D1F681A1882281A282A1282B22A3F1
:1018700088819981A816B90641F0909262010E9470
:10188000A71E90936401809363012296B1E0C8354E
:10189000DB0709F09ECF809162018823B1F080912F
:1018A0006301909164010E94B31E069770F0E8E511
:1018B000F1E0D8018D919D918D0181939193B1E0DB
:1018C00008351B07B1F7109262010E94B80881E049
:1018D000DF91CF911F910F91FF90EF90DF90CF900C
:1018E000BF90AF909F908F907F905F904F900895A2
:1018F00060E070E0AFCFE82FF0E0EE0FFF1FE85A96
:10190000FE4F808191810895089531B3242F209551
:10191000232331B3432B3FB7F894FC01680F791FA1
:10192000E617F70711F43FBF0895819198E041BB96
:10193000000000C087FF21BB880F000000C000C06E
:1019400000C021BB00C09A9591F7EACF20B3242BA9
:1019500020BB9B01220F331F620F731F0E94850C57
:1019600087EC90E00197F1F700C00000089540E493
:101970000C94A60CCF92DF92EF92FF920F931F93DD
:10198000CF93DF93E901662309F469C0E42EF12CBB
:10199000EFEFF0E0E61BF109EE9D8001EF9D100DE9
:1019A000FE9D100D1124212FE12FFF27EE1AFF0AB3
:1019B0005CE3C52ED12CB6010E94732BFB01BC0148
:1019C000E69EC001E79E900DF69E900D1124B60193
:1019D0000E94732BE230F105A1F140F4309779F0C9
:1019E000319759F180E020E040E00CC0E430F1058F
:1019F00091F168F13597B1F7842F861B03C0812FD1
:101A0000262F210FE42FF0E0E75EF44F4491E22F00
:101A1000F0E0E75EF44F9491E82FF0E0E75EF44FDA
:101A2000E49149839883EA83DF91CF911F910F91CD
:101A3000FF90EF90DF90CF900895812F242F461BC9
:101A4000E1CF862F810FE42F412F2E2FDBCFE42F04
:101A5000E61B842FF9CF842F462F410FD3CF842F3D
:101A6000242FD0CF88E090E00C94A92BAB01BC01CF
:101A700088E090E00C94C72BE2E5F2E083E08083FD
:101A8000109253028FEF8283838360915202709190
:101A9000530280915402909155020C94360D80911E
:101AA000520280FF06C06AE070E08AE592E00C9482
:101AB000B70CEAE5F2E0118210821282339682E0DE
:101AC000E837F807C1F7EFCFEAE5F2E081836083FA
:101AD0004283339692E0E837F907C1F70C944F0D33
:101AE000EF92FF920F931F93CF93DF9300D01F923B
:101AF000CDB7DEB7182FE92EF62E042F80915202B3
:101B000090915302A0915402B091550280935602D5
:101B100090935702A0935802B093590280915202B9
:101B200080FF1FC09E012F5F3F4F812F9E2D0E947F
:101B3000BA0C8091560210FB87F9809356021695D5
:101B4000809157028078812BE0FA87F980935702C1
:101B5000F0925802009359024B8169818A810E9458
:101B6000640D0F900F900F90DF91CF911F910F9107
:101B7000FF90EF9008950F931F93CF93DF93EC01A5
:101B8000062F142F9091520290FF43C0892F8E7719
:101B9000823021F5CE010E94700D80915202C0FB6F
:101BA00087F980935202C695809153028078C82BA2
:101BB000D0FBC7F9C093530200935402109355020F
:101BC000609152027091530280915402909155029B
:101BD000DF91CF911F910F910C94360D892F86952F
:101BE0008F732EE3280F2F73243018F410915502B1
:101BF000D4CF865C8F73893080F6991F9927991FFF
:101C0000D0915302CD2FCC0FC92BD7FBDD27D0F9B4
:101C1000C4CFDF91CF911F910F910895E2E5F2E0DB
:101C20002081221F2227221F30915302432F440F6D
:101C3000842F822B37FB992790F9089668E671E08C
:101C40000E94872B438162810C94BB0D209152022C
:101C5000221F2227221F30915302432F440F842F2B
:101C6000822B37FB992790F98830910544F4805AEC
:101C70009E4F40915502609154020C94BB0D089701
:101C800068E671E00E94872BF4CF60915402862FA2
:101C900090E0883F910594F4685F80915202881F1C
:101CA0008827881F90915302292F220F97FB99278D
:101CB00090F940915502822B0C94BB0D6FEFEDCF44
:101CC00060915402862F90E0089794F068508091BC
:101CD0005202881F8827881F90915302292F220FB4
:101CE00097FB992790F940915502822B0C94BB0DDC
:101CF00060E0EDCF40915502842F90E0883F910540
:101D000094F4485F80915202881F8827881F909121
:101D10005302292F220F97FB992790F960915402C3
:101D2000822B0C94BB0D4FEFEDCF40915502842FC9
:101D300090E0089794F0485080915202881F8827BD
:101D4000881F90915302292F220F97FB992790F912
:101D500060915402822B0C94BB0D40E0EDCF90912A
:101D6000520290FF3BC09178811126C092609093FF
:101D700052026091520270915302809154029091EC
:101D800055020E94360D80915202982F9E77923014
:101D9000D9F410927A01881F8827881F90915302E6
:101DA000292F220F97FB992790F9409155026091B6
:101DB0005402822B0C94BB0D893110F09063D7CF65
:101DC0008F73880F982BD3CF982F9695925C9F7323
:101DD000963108F791E090937A01DDCF08958091D4
:101DE000250281608093250281E080937B010E941F
:101DF000F71D811104C00E94D11D0E943C0D0E945C
:101E0000320D609352027093530280935402909368
:101E100055026E7761F40E943C0D0E94320D609372
:101E2000520270935302809354029093550281E0C2
:101E300080937A018091520280FF04C086958F734F
:101E40000C94AF0E08958091520286958F738F5F28
:101E5000893108F081E00C94AF0E80915202982FE6
:101E6000909590FB80F9809352026091520270919C
:101E7000530280915402909155020E94360D809138
:101E8000520280FF04C086958F730C94AF0E10929F
:101E90007A012FEF80E792E0215080409040E1F7F7
:101EA00000C000000C944F0DCF93C82F8091780193
:101EB000909179010E94B31EEC2FF0E0EB5EF54F9C
:101EC000E491F0E08E179F0718F10E94A71E9093EF
:101ED000790180937801E0917701F0E0E75EF54FBA
:101EE000449180915202881F8827881F9091530245
:101EF000292F220F97FB992790F960915402822B8A
:101F00000E94700D8091770190E001968093770197
:101F1000CF910895CF93C82F80917501909176014C
:101F20000E94B31EEC2FF0E0EE5EF54FE491F0E07E
:101F30008E179F07E8F00E94A71E9093760180936A
:101F40007501409155026091540280917301909106
:101F500074010E94700D809173019091740101963B
:101F600068E671E00E94732B909374018093730173
:101F7000CF910895CF92DF92FF920F931F93CF934B
:101F8000DF93F82E80917101909172010E94B31E2F
:101F9000EF2DE695F0E0EE5EF54FE491F0E08E1760
:101FA0009F07A8F10E94A71E909372018093710170
:101FB0000AE512E0C0E0D0E088E6C82EDD24D39424
:101FC00080916F01909170018C0F9D1FB6010E944E
:101FD000732B980140915502609154020E94BA0CF3
:101FE000A4960D5F1F4FC83681E0D80749F70E94BD
:101FF0004F0D80916F0190917001F0FE10C001961D
:10200000BE010E94732B9093700180936F01DF914A
:10201000CF911F910F91FF90DF90CF90089501977E
:10202000F2CFAF92BF92CF92DF92EF92FF920F93D7
:102030001F93CF93DF93C82F80FF71C0FF24FA94C2
:1020400080916D0190916E010E94B31EC695EC2F98
:10205000F0E0E15FF54FE491F0E08E179F0708F4A0
:1020600053C00E94A71E90936E0180936D01CAE534
:10207000D2E000E010E097E0C92ED12C198218823E
:102080001A8287E0A82EB12CE12C80916C018E0D74
:1020900087FD865F082E000C990B08171907E9F4D5
:1020A000209155022A9DC0012B9D900D1124B6014F
:1020B0000E94872B462F80915202881F8827881FF5
:1020C00090915302592F550F97FB992790F99E0134
:1020D00060915402852B0E94BA0CEF0C81E0A81A83
:1020E000B10899F60F5F1F4F23960A30110531F69C
:1020F0000E944F0D80916C0191E0F91215C0811181
:1021000011C089E080936C01DF91CF911F910F91F5
:10211000FF90EF90DF90CF90BF90AF900895FF2495
:10212000F3948ECF8150EECF90E00196B8010E94DB
:10213000872BE8CFBF92CF92DF92EF92FF920F935F
:102140001F93CF93DF93CDB7DEB76E970FB6F8949A
:10215000DEBF0FBECDBF182F80916A0190916B0139
:102160000E94B31EE12FF0E0E45FF54FE491F0E050
:102170008E179F0708F47AC00E94A71E90936B01E8
:1021800080936A018E010F5F1F4FE12CF12C6801D3
:10219000D80111961C9211971C9212961C92B12C88
:1021A0009091000180916901B99E800D11248A30BF
:1021B0000CF089E087FD80E0082E000C990BE816F2
:1021C000F906A1F480915202881F8827881F9091F8
:1021D0005302592F550F97FB992790F99801409179
:1021E000550260915402852B0E94BA0CB394B7E05B
:1021F000BB12D6CFEFEFEE1AFE0A0D5F1F4FFAE0CB
:10220000EF16F10429F62AE532E009E010E05AE081
:10221000E52EF12CC801B7010E94872BFC01EE0FBF
:10222000FF1FE80FF91FEC0DFD1D8181D9011196EB
:102230008C93119780818C93828112968C930F5F7F
:102240001F4F2D5F3F4F0331110521F70E944F0DA6
:1022500090910001809169019130E1F48A3FB4F4DA
:1022600089EF809369018FEF809300016E960FB61E
:10227000F894DEBF0FBECDBFDF91CF911F910F91BC
:10228000FF90EF90DF90CF90BF90089581508093A2
:102290006901ECCF81312CF080E18093690181E00C
:1022A000E3CF8F5FF4CFCF93DF938091670190915D
:1022B00068010E94B31E883E934028F10E94A71E29
:1022C0009093680180936701809165019091660108
:1022D0000196817099279093660180936501CAE504
:1022E000D2E09E01409155026091540280E090E05E
:1022F0000E94BA0C239682E0C837D80791F7DF9185
:10230000CF910C944F0DDF91CF91089580917A0178
:10231000882371F18091520286958F739EE3980F06
:102320009F73943018F482500C94540F9AE3980FD2
:102330009F73933018F486500C948A0F97E3980F8C
:102340009F73963018F489500C94BA0F91E3980F4C
:102350009F73963018F48F500C9411109BE2980FD5
:102360009F73933018F485510C949A100C94531168
:10237000089590938101809380010895E0918001F8
:10238000F0918101309721F00190F081E02D0994C6
:1023900080E00895E0918001F0918101309721F073
:1023A0000280F381E02D09940895E0918001F0917D
:1023B0008101309721F00480F581E02D0994089582
:1023C00020917E0130917F012817390771F0909399
:1023D0007F0180937E01E0918001F091810130972F
:1023E00021F00680F781E02D0994089520917C0169
:1023F00030917D012817390771F090937D0180930A
:102400007C01E0918001F0918101309721F00084FE
:10241000F185E02D0994089508950C940C120E9402
:102420009E1E0E94830B0E946F1F0E94BE220C946E
:10243000EF0E5F926F927F928F929F92AF92BF92B8
:10244000CF92DF92EF92FF920F931F93CF93DF9380
:10245000CDB7DEB72A970FB6F894DEBF0FBECDBF5B
:102460000E94CE0B93E8A92E91E0B92E00E010E077
:1024700088248394912C502E802F0E947B0C7C0109
:10248000F501C190D1905F018C159D05B1F40F5FEE
:102490001F4F0530110579F78FEF89838A831B82DF
:1024A0000E94A71E8160782F9D838C8349815A8169
:1024B0006B818D810E94D21236C08091250281FDF0
:1024C0000E94840C80E090E0CE24DF243401082EAA
:1024D00002C0660C771C0A94E2F796012621372188
:1024E000232B09F443C08E835F82E620F72081E02E
:1024F000EF2809F480E088870E94A71E8160782F6A
:102500009A8789874E815F8168858A850E94D21269
:10251000000F111FF801ED57FE4F80819181682651
:102520007926718260820E940F220E94BE119091D2
:102530008201891709F10E94BE11809382012A96B7
:102540000FB6F894DEBF0FBECDBFDF91CF911F91C4
:102550000F91FF90EF90DF90CF90BF90AF909F9042
:102560008F907F906F905F900C94FC0801968F3055
:10257000910509F0ABCF8BCF2A960FB6F894DEBF4A
:102580000FBECDBFDF91CF911F910F91FF90EF90C4
:10259000DF90CF90BF90AF909F908F907F906F9083
:1025A0005F900895CF93DF93CDB7DEB72B970FB62B
:1025B000F894DEBF0FBECDBF4F83588769877A87F7
:1025C0008B87DE01119686E0FD0111928A95E9F76D
:1025D00085E0FE01379601900D928A95E1F74981D9
:1025E0005A816B817C818D819E810E948A192B96F4
:1025F0000FB6F894DEBF0FBECDBFDF91CF91089527
:10260000882309F4D8C0823871F40E94BE1181FD7C
:10261000D2C089E30E94DE1C0E94A21D89E30E94B1
:102620001A1D0C94A21D833859F40E94BE1180FD1E
:10263000C2C083E50E94DE1C0E94A21D83E5EFCF8D
:10264000843859F40E94BE1182FDB5C087E40E940F
:10265000DE1C0E94A21D87E4E2CF9CEF980F913A06
:1026600018F40E94DE1CDDCF90E2980F983050F4F1
:10267000877091E001C0990F8A95EAF7892F0E942F
:10268000591DCFCF9BE5980F933070F4853A31F008
:10269000863A39F083E890E00C94E01181E890E00C
:1026A000FBCF82E890E0F8CF98E5980F953108F0DD
:1026B00082C0883A09F440C0893A09F440C08A3A95
:1026C00009F440C08B3A09F440C08C3A09F440C088
:1026D0008B3B09F440C08C3B09F440C08D3A09F4AF
:1026E00040C0803B09F440C08E3A09F440C08F3AA4
:1026F00009F440C0813B09F440C0823B09F440C06A
:10270000833B09F440C0843B09F440C0853B09F495
:1027100040C0863B09F440C0873B09F440C0883B79
:1027200009F440C0893B09F440C08A3B09F440C029
:1027300080E090E00C94F61182EE90E0FBCF89EE01
:1027400090E0F8CF8AEE90E0F5CF85EB90E0F2CF05
:1027500086EB90E0EFCF83EB90E0ECCF84EB90E062
:10276000E9CF87EB90E0E6CF8CEC90E0E3CF8DEC07
:1027700090E0E0CF83E891E0DDCF8AE891E0DACF26
:1027800082E991E0D7CF84E991E0D4CF81E292E071
:10279000D1CF83E292E0CECF84E292E0CBCF85E24C
:1027A00092E0C8CF86E292E0C5CF87E292E0C2CF46
:1027B0008AE292E0BFCF0895882309F44BC08238A3
:1027C00071F40E94BE1181FF45C089E30E94DE1CA6
:1027D0000E94A21D89E30E941A1D0C94A21D833839
:1027E00059F40E94BE1180FF35C083E50E94DE1CB3
:1027F0000E94A21D83E5EFCF843859F40E94BE11D8
:1028000082FF28C087E40E94DE1C0E94A21D87E48C
:10281000E2CF9CEF980F913AF0F290E2980F983047
:1028200050F4877091E001C0990F8A95EAF7892FDB
:102830000E945F1DD2CF9BE5980F933020F480E07B
:1028400090E00C94E011885A853120F480E090E00B
:102850000C94F6110895882321F00E94591D0C94C0
:10286000A21D0895882321F00E945F1D0C94A21DD3
:1028700008958F929F92AF92BF92DF92EF92FF9254
:102880000F931F93CF93DF937C01D62FC72FFC01AB
:10289000058102950F70128111110E94781D0E940E
:1028A000D71CD82E882371F0112331F180E28D0FCF
:1028B000883010F182E00E94C01C0E94D71C91E079
:1028C000D82ED926EC2FE295EF708E2F90E0FC01E8
:1028D000E459FB4E0C949B2B7E147E14CF14CF1422
:1028E0000E152C15AC14AC143715AC14D215D2152A
:1028F00044164D16AC146D16D12CE4CF8C2F807F6E
:10290000CF70882311F0C295C07F1123A9F0CC238A
:1029100059F080E28D0F883010F0D11109C08C2F52
:102920000E94591D0E94A21D8D2F0E94001314C0E9
:102930008C2F0E946A1DF6CF8D2F0E94DC13CC23B2
:1029400059F080E28D0F883010F0D11124C08C2F07
:102950000E945F1D0E94A21DDD2009F4C5C10E94D6
:10296000B31C80FDC1C1F70112820E94AD1C0E9400
:102970002C1BC7010E9480160E94AD1CDF91CF91D5
:102980001F910F91FF90EF90DF90BF90AF909F90BD
:102990008F900C944D1B8C2F0E94701DDBCF8C2FC1
:1029A000807FCF70803211F0C295C07FDD2369F047
:1029B000D13021F1112361F1002359F0F701858114
:1029C00080FFB2CF8F70858304C0112361F00111A5
:1029D00004C08C2F0E942B14BFCF8C2F0130D1F755
:1029E0000E948C1DB9CF011106C00E948F1D8C2F33
:1029F0000E943214B1CF0130C1F7AECF112321F0C4
:102A0000063008F0A9CFE5CF053008F0A5CFEFCF0D
:102A1000002369F38D2F0E94DC139ECF8C2F8695A7
:102A20008695837059F0813009F096CF112389F093
:102A30008D2F9C2F93700E94F6118ECF112331F0B1
:102A40008D2F9C2F93700E94E01186CF80E090E044
:102A5000FACF80E090E0EFCF8D2F112329F00E9474
:102A600018210E94042278CF0E948021FACF8C2F57
:102A7000837009F048C011116FCF2D2F2295269534
:102A80002770220F220F6D2F6F70862E912CA12C94
:102A9000B12C022E04C0880C991CAA1CBB1C0A94E1
:102AA000D2F7D4FF1EC06FE070E080E090E004C079
:102AB000660F771F881F991F2A95D2F7609570952A
:102AC00080959095C695C695C370C23071F0A0F4FC
:102AD000682979298A299B29C13091F00E94D51A49
:102AE0003BCF60E070E0CB01EDCF682979298A29DE
:102AF0009B290E94F11A30CF0E94D51AC501B4015A
:102B00000E94B91A29CF1123C9F18C2F8170882313
:102B100009F422CF2D2F229526952770220F220F00
:102B20006D2F6F70862E912CA12CB12C022E04C01B
:102B3000880C991CAA1CBB1C0A94D2F7D4FF20C095
:102B40006FE070E080E090E004C0660F771F881FA0
:102B5000991F2A95D2F76095709580959095C695A6
:102B6000C695C370C23081F0B0F4682979298A29EA
:102B70009B29C130A1F00E94AF1BEECE8695C7CF36
:102B800060E070E0CB01EBCF682979298A299B2985
:102B90000E94CB1BE1CE0E94AF1BC501B4010E9475
:102BA000931BDACE8D2F90E0FC01E05EF109E53158
:102BB000F10508F061C0E152FA4E0C949B2BF4151C
:102BC000F415F415F415F415F415F415F415F415BD
:102BD000F415F415F415F415F415F415F41501169F
:102BE0000F1616161D162716DF708C2F8F711123E6
:102BF00021F00E942C1B8D2FEDCE0E944D1B8D2F9E
:102C0000F7CE112341F0053008F0A6CE8C2F8F713E
:102C10000E94721BA1CE063008F09ECEF7CF112382
:102C200039F08C2F8F710E942C1B96CE1123C9F383
:102C30008C2F8F710E944D1B8FCE112329F08C2F6A
:102C40008F710E94171B88CE0E940D1B85CE112309
:102C500049F0CF718C2F0E942C1B63E08C2F0E94B7
:102C6000B71C7ACE81E00E94C01C023008F474CEFA
:102C700082E00E94C01C70CE112319F0002389F25B
:102C800053CE0023A9F2C6CE4C2F4F706D2FC70133
:102C90000E942B070E94331A5FCE11115DCECF70B8
:102CA000C230A9F040F4CC2379F0C13009F054CE01
:102CB0000E94EA2251CEC33069F0C43009F04CCEF4
:102CC0008D2F0E943C2348CE0E94CF2245CE0E94E9
:102CD000062342CE0E9419233FCE4C2F4F706D2FFA
:102CE000C7010E94FE0838CEDF91CF911F910F914E
:102CF000FF90EF90DF90BF90AF909F908F900895DE
:102D00000F931F93CF93DF93EC01988189812B81DF
:102D10003C81232B39F08F3F19F481E09F3F19F05C
:102D200080E001C081E080FD13C0CE010E94440715
:102D3000882371F0688179818A810E948A1C8C01C4
:102D40000E94E71B0E94AE1AB801CE010E943914FE
:102D5000DF91CF911F910F9108950E94781D0E94DD
:102D6000891D0E944B1D0E94A21D0E94B2220E943A
:102D7000042280E090E00E94E01180E090E00C945A
:102D8000F6110E94671D0C94AD160E947F1CE92F5E
:102D9000E295EF704E2F50E0FA013297EE30F105D8
:102DA000D8F4EB52F94E0C949B2BE316E316EC1679
:102DB000EC16EE16EC16EC16EC16E316E316F3160C
:102DC000EC16EC16F316803F19F020F4803E20F448
:102DD00081E00895843FE1F380E00895803EC0F3F0
:102DE000813FD1F7F5CF93FB882780F90895CF93E2
:102DF000DF9300D000D01F92CDB7DEB70F900F90B9
:102E00000F900F900F90DF91CF910895CF93DF93A4
:102E100000D000D000D0CDB7DEB726960FB6F8941C
:102E2000DEBF0FBECDBFDF91CF9108951F93CF932B
:102E3000DF93C0918E0116E080918F01C81304C00A
:102E4000DF91CF911F910895D0E01C9FF0011D9F4D
:102E5000F00D1124E057FE4F408151816281738152
:102E6000848195810E9406172196C770E5CF409115
:102E7000C0015091C1016091C2017091C301809164
:102E8000C4019091C5010C9406171F93CF93DF9353
:102E90008091C50182958F70D1F48091C201882301
:102EA000B1F080918E01D0918F01B091C001C0919D
:102EB000C1014091C3015091C401A1E0BF3F09F09D
:102EC000A0E0BA016095709516E08D1304C0DF9103
:102ED000CF911F91089541155105D9F1CF3FD9F1F7
:102EE00020E090E020FD3CC0189FF001199FF00DFC
:102EF0001124E057FE4F21812C1332C020812B1367
:102F00002FC0228121112CC0238134812417350741
:102F100020F1241B350B283C310510F52091C5010B
:102F20002F7020612093C50126E0289FF001299F82
:102F3000F00D1124EB56FE4F80818F7080618083ED
:102F400080EC91E00E948016DF91CF911F910C944C
:102F5000161721E0C6CF2A2FC4CF260F371FDBCF8D
:102F600001968770B2CFAF92BF92CF92DF92EF926D
:102F7000FF920F931F93CF93DF93CDB7DEB7619787
:102F80000FB6F894DEBF0FBECDBF8C0185E0F8010F
:102F9000DE011D9601900D928A95E1F7D8014C91C2
:102FA00011965C9111971296EC903091C00160914E
:102FB000C1018091C3019091C401009739F06F3F26
:102FC00019F421E03F3F19F020E001C021E0B22FC9
:102FD000B170BB2E20FD90C1F801C380D480A090B9
:102FE000C201AA2009F432C12091C501C816D90630
:102FF00010F1D601A81BB90BCD01FF24F394883C36
:103000009105F0F0F12C207F09F0E9C07C2DD98AE0
:10301000C88A6E2D89890E94F71680EC91E00E9483
:103020008016E0ECF1E086E0DF011D928A95E9F779
:103030000E9437171EC0809590958C0D9D1DDDCF89
:10304000822F807F09F084C0651325C0341323C00C
:10305000FE2CE11020C02F7020612093C5010E943A
:10306000371780EC91E00E9480168091C501F8012D
:1030700085838F2D61960FB6F894DEBF0FBECDBF4E
:10308000DF91CF911F910F91FF90EF90DF90CF9044
:10309000BF90AF900895CD2839F05F3F19F481E0DB
:1030A0004F3F19F080E001C081E080FD24C081E045
:1030B0008E25F82FF170FF2E80FF3FC080918E018A
:1030C00020918F0136E0821318C04D875E878D8571
:1030D0009E850E947F1C292F22952F70223008F197
:1030E000243030F59F7009F1D80115969C91907F9E
:1030F000E1F4FB2CBECF80E0DCCF90E0389FF00104
:10310000399FF00D1124E057FE4F6181561306C020
:103110006081641303C06281E6120FC0019687705C
:10312000D2CF9F7011F0882321F3805E883008F39E
:10313000C8010E948016BF2CDCCFFE2CEE2009F4C3
:1031400098CF8091C50181608093C501F12C91CF0A
:10315000651314C0341312C0E11010C08091C50172
:10316000F8018583C8010E94801686E0F801A0EC72
:10317000B1E001900D928A95E1F75ACF4D875E87B5
:103180008D859E850E94C516882309F4BFC0EE2058
:1031900009F4BCC02091C501822F82958F7090E008
:1031A000029774F08091C0019091C10198878F833C
:1031B0001986DB86CA862C87CE0107960E94801668
:1031C00086E0F801A0ECB1E001900D928A95E1F75C
:1031D0000E9445170E943717FF24F3944ACF6513C6
:1031E00014C0341312C0E11010C08091C501F80161
:1031F0008583C8010E94801686E0E0ECF1E0DF01E3
:103200001D928A95E9F7FA2C34CF4D875E878D851C
:103210009E850E94C516882309F478C0EE2009F423
:1032200075C02091C501822F82958F7090E0029722
:103230003CF28091C0019091C1019A8389831B82E5
:10324000DD82CC822E83CE010196B8CFC816D90676
:1032500080F0F601E81BF90BCF01883C910570F076
:10326000F12C7C2DD98AC88A6E2D89890E94F71687
:10327000D8CE809590958C0D9D1DEFCFFE2CEE2025
:1032800009F444C0651327C0341325C08091C501DB
:1032900080FD18C0982F92959F70292F30E021153E
:1032A000310581F0D80115968C9315972F30310593
:1032B00009F458CF9F5F9295907F8F70892B159658
:1032C0008C9350CF86E0F801A0ECB1E001900D9214
:1032D0008A95E1F7CECE4D875E878D859E850E94CB
:1032E000C51681116DCF8091C50181608093C501A4
:1032F000C8010E948016BDCEEE2041F04D875E874A
:103300008D859E850E94C51681115ACFC8010E94E5
:10331000801662CF1F93CF93DF93CDB7DEB72C9784
:103320000FB6F894DEBF0FBECDBF4F8358876987B5
:103330007A878B879C87CE0107960E94B3178823D4
:1033400049F19F8188852A853B85232B39F08F3F62
:1033500019F481E09F3F19F080E001C081E080FD19
:1033600008C04F81588569857A858B859C850E9428
:10337000061716E080918E0190918F01891343C04A
:103380002C960FB6F894DEBF0FBECDBFDF91CF9164
:103390001F91089586E0FE013796DE011196019097
:1033A0000D928A95E1F79F8188852A853B85232B9D
:1033B00039F08F3F19F481E09F3F19F080E001C0A0
:1033C00081E080FDD6CF20918F0130E0C9010196C8
:1033D0008770992740918E0150E084179507A9F1D5
:1033E00096E0929FD001939FB00D1124A057BE4F3D
:1033F000FE01319601900D929A95E1F780938F012D
:103400000E941617B6CF819FC001112480579E4F8E
:103410000E94B317882309F4B3CFE0918E011E9F59
:10342000F0011124E057FE4F408151816281738188
:10343000848195810E94061780918E0190E001960B
:103440008770992780938E0195CF0E94C1161092A4
:103450008F0110928E01E0ECF1E086E0DF011D9219
:103460008A95E9F78DCFEF92FF920F931F93CF9339
:10347000DF938C01892B81F0F12CEE24E394E80199
:103480002196F8018491843770F4843008F062C08A
:103490008130B1F08230B1F1DF91CF911F910F9166
:1034A000FF90EF900895853709F44FC008F43FC0AE
:1034B0009CE7980F903780F78F770E94DC134CC001
:1034C0000E5F1F4FFE01849190E2980F983060F4D8
:1034D0008770FE2D01C0FF0F8A95EAF78F2F0E949B
:1034E0007B1D0E94A21D02C00E9400138F2D882305
:1034F00009F4C5CFEFE9FFE03197F1F700C0000014
:103500008150F5CF0E5F1F4FFE01849190E2980F1E
:10351000983050F48770FE2D01C0FF0F8A95EAF7AE
:103520008F2F0E94811DDDCF0E94DC13DFCF0E5F45
:103530001F4FFE01C491CC23C9F28FE99FE0019790
:10354000F1F700C00000C150F6CF0E5F1F4FFE0123
:10355000F490CCCF0E9400138E01C8CF08956093E1
:10356000FC017093FD018093FE019093FF010C9488
:10357000AD160F931F930091FC011091FD01209156
:10358000FE013091FF01DC01CB01802B912BA22B9E
:10359000B32B8093FC019093FD01A093FE01B093A7
:1035A000FF011F910F910C94AD160F931F93009183
:1035B000FC011091FD012091FE013091FF01DC0121
:1035C000CB0180239123A223B3238093FC0190930A
:1035D000FD01A093FE01B093FF011F910F910C9488
:1035E000AD160F931F930091FC011091FD012091E6
:1035F000FE013091FF01DC01CB0180279127A2273A
:10360000B3278093FC019093FD01A093FE01B0933A
:10361000FF011F910F910C94AD161092F8011092BA
:10362000F9011092FA011092FB010C94AD1641E0E1
:1036300050E060E070E004C0440F551F661F771F24
:103640008A95D2F74093F8015093F9016093FA01FB
:103650007093FB010C94AD1641E050E060E070E027
:1036600004C0440F551F661F771F8A95D2F78091BB
:10367000F8019091F901A091FA01B091FB01842B1E
:10368000952BA62BB72B8093F8019093F901A0936B
:10369000FA01B093FB010C94AD1641E050E060E0FC
:1036A00070E004C0440F551F661F771F8A95D2F73C
:1036B00040955095609570958091F8019091F90131
:1036C000A091FA01B091FB0184239523A623B7238F
:1036D0008093F8019093F901A093FA01B093FB0154
:1036E0000C94AD1641E050E060E070E004C0440F7F
:1036F000551F661F771F8A95D2F78091F801909128
:10370000F901A091FA01B091FB0184279527A62722
:10371000B7278093F8019093F901A093FA01B09331
:10372000FB010C94AD160F931F930091F8011091BB
:10373000F9012091FA013091FB01DC01CB01802BD2
:10374000912BA22BB32B8093F8019093F901A093B6
:10375000FA01B093FB011F910F910C94AD160F93DA
:103760001F930091F8011091F9012091FA01309115
:10377000FB01DC01CB0180239123A223B32380939F
:10378000F8019093F901A093FA01B093FB011F9106
:103790000F910C94AD160F931F930091F8011091A7
:1037A000F9012091FA013091FB01DC01CB01802766
:1037B0009127A227B3278093F8019093F901A09352
:1037C000FA01B093FB011F910F910C94AD1608956F
:1037D0002FE0929F800D1124982F977041E001C037
:1037E000440F9A95EAF786958695869595E0899F88
:1037F000F0011124EA53FE4F80E090E070E0508128
:103800009B01082E02C0369527950A94E2F7217095
:10381000219525272423252721930196853091057D
:1038200071F708952FE0929F800D1124982F9770C3
:1038300086958695869525E0829FA001112460E0FB
:1038400070E080E0FA01E60FF71FEA53FE4F208197
:1038500030E0092E02C0369527950A94E2F72170D0
:103860003327062E01C0220F0A94EAF7822B6F5FDE
:103870007F4F6530710531F70895BF92CF92DF9287
:10388000EF92FF920F931F93CF93DF938C01C09021
:10389000F801D090F901E090FA01F090FB018091DD
:1038A000FC019091FD01A091FE01B091FF01C82A99
:1038B000D92AEA2AFB2ACFE1D0E0BC2ED701C601E3
:1038C0000C2E04C0B695A795979587950A94D2F7C4
:1038D00080FD0EC0219788F7B12C8B2DDF91CF9101
:1038E0001F910F91FF90EF90DF90CF90BF900895C0
:1038F000B8018C2F0E941B09019761F3EECFCF9383
:10390000DF93EC010E943D1CBE010E941B09DF9168
:10391000CF9108951F93CF93DF93EB0190918D0189
:10392000992339F0CB010E947F1CDF91CF911F9129
:103930000895882369F0CB010E943D1C182F682F41
:10394000CE010E94E81BBE01812F0E941B09EDCF12
:10395000CB010E94121C182FF6CF80910002859592
:10396000859585950895809100028770089598E067
:10397000899F90011124622B609300020C942C1BF0
:10398000209100028095822380930002982F9770E7
:1039900069F430E0482F082E000C550B241735072A
:1039A00029F08595859585950C944D1B08959091EA
:1039B0000002977081E009F480E00895909113016E
:1039C0009923D9F090917C0297FF17C0982F969574
:1039D000969596959F3131F1E0910101F0910201A8
:1039E000E90FF11D877021E030E001C0220F8A95B8
:1039F000EAF78181822B8183089520910101309122
:103A00000201F90132969FEF40E05191851751F084
:103A10009F3F19F4511101C0942F4F5F4E31A9F708
:103A20009F3F09F40895290F311D97FD3A95F9013B
:103A300082830895909113019923E9F090917C027B
:103A400097FF19C0982F9695969596959F3111F1ED
:103A5000E0910101F0910201E90FF11D282F27707B
:103A600081E090E001C0880F2A95EAF78095918166
:103A7000892381830895E0910101F09102019F0162
:103A8000225E3F4F9281891301C012823196E21764
:103A9000F307C1F7089581E090E0E0910101F09112
:103AA0000201E80FF91F1082019680329105A9F7F3
:103AB000089590912402892B809324020895982FD1
:103AC0009095809124028923809324020895109276
:103AD0002402089590912302892B80932302089554
:103AE000982F909580912302892380932302089533
:103AF00010922302089590912202892B8093220232
:103B00000895982F90958091220289238093220214
:103B10000895109222020895809301020895109250
:103B2000010208952091010130910201F9013196BD
:103B3000205E3F4F80E0919191118F5FE217F30774
:103B4000D1F70895E0910101F091020180912402E2
:103B50008083E0910101F091020180819091230224
:103B6000892B8083E0910101F09102018081909185
:103B70002202892B808390910102992361F0E091C8
:103B80000101F09102018081892B80830E94921DA6
:103B900081111092010280910101909102010C9417
:103BA000CA116DEE7EEF80E090E00E94D32B60E0C2
:103BB00082E090E00E94B52B60E083E090E00E94FC
:103BC000B52B60E084E090E00E94B52B60E085E0DA
:103BD00090E00E94B52B60E086E090E00E94B52B5B
:103BE00040E050E0BA0188E090E00C94C72B80E000
:103BF00090E00E94AF2B21E08D3E9E4F09F020E027
:103C0000822F089582E090E00C94A12B682F82E02F
:103C100090E00C94B52B83E090E00C94A12B682FDE
:103C200083E090E00C94B52B84E090E00C94A12B01
:103C3000682F84E090E00C94B52B86E090E00C9423
:103C4000A12B682F86E090E00C94B52B8091830225
:103C5000843051F11092260220E488E190E00FB602
:103C6000F894A895809360000FBE2093600080E0D8
:103C70000E94CE0880E00E94FC0883B7817F8460A8
:103C800083BF83B7816083BF7894889583B78E7F25
:103C900083BF0FB6F894A8958091600088618093E7
:103CA0006000109260000FBE089508950C94551E98
:103CB000CF930E94561E0E94CE0B0E94551EC0E05C
:103CC0008C2F0E947B0C892B31F4CF5FC530C1F75C
:103CD00080E0CF91089581E0FCCF0E94C1160E9440
:103CE000BE220E94BE110C94FC081F920F920FB6C8
:103CF0000F9211248F939F93AF93BF9380912602CD
:103D0000811113C08091780290917902A0917A027A
:103D1000B0917B024196A11DB11D809378029093D2
:103D20007902A0937A02B0937B02BF91AF919F91E9
:103D30008F910F900FBE0F901F90189582E084BD59
:103D400093E095BD9AEF97BD80936E0008952FB7CD
:103D5000F8948091780290917902A0917A02B091C2
:103D60007B022FBF0895CF92DF92EF92FF920F93C5
:103D70001F932FB7F8944091780250917902609187
:103D80007A0270917B022FBF6A017B01EE24FF242F
:103D90008C0120E030E0C016D106E206F30650F0B8
:103DA000481B590BCA011F910F91FF90EF90DF90B4
:103DB000CF90089541505109F3CF1F920F920FB643
:103DC0000F9211248F939F93AF93BF9380917802AA
:103DD00090917902A0917A02B0917B020196A11D87
:103DE000B11D8093780290937902A0937A02B093E8
:103DF0007B02BF91AF919F918F910F900FBE0F905B
:103E00001F9018950E944427F8942FEF87EA91E6B7
:103E1000215080409040E1F700C0000087E090EB27
:103E2000DC0180938C0290938D02A0938E02B0935C
:103E30008F029CE088E10FB6F894A895809360000B
:103E40000FBE90936000FFCFAF92BF92CF92DF92F0
:103E5000EF92FF920F931F93CF93C0E0CC24C394B3
:103E6000D12CE82EF12C8C2F0E947B0C5C0100E001
:103E700010E0C601002E02C0880F991F0A94E2F7D5
:103E80008A219B21892B99F40F5F1F4F0F30110559
:103E900081F7CF5FC53039F780E0CF911F910F9147
:103EA000FF90EF90DF90CF90BF90AF900895602F7C
:103EB0007C2F80E00E94FF08E816F90629F781E0D0
:103EC000ECCFCF93C82F8CE20E94241F882321F0CF
:103ED0008C2FCF910C94241F80E0CF910895CF9325
:103EE0000E94F71D811102C00E94D11DC5E6C1507C
:103EF00009F0E9C089E20E94611F811118C18AE2BC
:103F00000E94611F81110E94D11D85E00E94611FE6
:103F100081110E94021F0E94021E8093250287E0E9
:103F20000E94611F882389F08BE10E94611F882312
:103F300009F4D2C08091250281FB992790F921E0F4
:103F4000922790FB81F980932502809125020E949F
:103F5000061E0E94141E90E090937D0280937C02C6
:103F600080EE0E94611F882341F080917C02982F8F
:103F7000909590FB80F980937C0289E30E94611FF9
:103F8000882359F080917C0281FB992790F921E0E8
:103F9000922790FB81F980937C0282EE0E94611F40
:103FA000882359F080917C0282FB992790F921E0C7
:103FB000922790FB82F980937C0286EE0E94611F1B
:103FC000882359F080917C0283FB992790F921E0A6
:103FD000922790FB83F980937C0283EE0E94611FFD
:103FE000882359F080917C0284FB992790F921E085
:103FF000922790FB84F980937C0285E30E94611FE5
:10400000882359F080917C0285FB992790F921E063
:10401000922790FB85F980937C0281E30E94611FC7
:10402000882359F080917C0286FB992790F921E042
:10403000922790FB86F980937C0281E10E94611FA8
:10404000882359F080917C0287FB992790F921E021
:10405000922790FB87F980937C0280917C020E94DA
:10406000181E87E20E94611FC82F8EE10E94611F07
:104070008111C2608FE10E94611F8111C46080E2E2
:104080000E94611F8111C86081E20E94611F81113D
:10409000C06182E20E94611F8111C06283E20E94BE
:1040A000611F8111C06484E20E94611F8823C9F1ED
:1040B000C0688C2F0E940F1E6C2F70E080E090E093
:1040C000CF910C94AF1A0E94CE0B8FE39CE901971D
:1040D000F1F700C000000BCF8EE00E94611F882323
:1040E00051F08091250282FB992790F921E09227D7
:1040F00090FB82F928CF80E10E94611F90912502F8
:10410000882351F093FB882780F921E0822780FBE8
:1041100093F99093250219CF892F809580FB90F910
:10412000F8CFC111C6CF0E940B1E682FC6CFCF910A
:1041300008958091290280FF12C06091060185E0F8
:10414000689FB001112475956795759567956038DE
:104150007105A8F56115710581F581E0089581FF6C
:1041600009C06091060185E0689FB0011124759532
:104170006795EDCF82FF07C06091060185E0689FDB
:10418000B0011124E4CF90912A029923A1F060910B
:104190000501961788F72091060185E0289F900178
:1041A0001124929FA001939F500D112470E0CA0129
:1041B0000E94872BCCCF65E070E0862F08958FE7B3
:1041C00008958091290280FF0CC06091040170E085
:1041D00075956795759567956115710539F581E058
:1041E000089581FF06C06091040170E075956795A0
:1041F000F3CF82FF08C06091040170E06038710560
:1042000058F38FE7089580912A02882369F060911E
:104210000301861780F790910401899FC001112442
:1042200070E00E94872BEACF61E070E0862F08954E
:10423000803F31F40E949920819580932D0208954A
:10424000813F19F40E949920F8CF823F31F40E94F7
:104250009920819580932C020895833F19F40E9440
:104260009920F8CF893F29F40E94E12080932E0203
:1042700008958A3F21F40E94E1208195F7CF8B3F7A
:1042800031F40E94E120819580932F0208958C3FA4
:1042900019F40E94E120F8CF843F31F480912B0281
:1042A000816080932B020895853F21F480912B0239
:1042B0008260F7CF863F21F480912B028460F1CF9A
:1042C000873F21F480912B028860EBCF883F21F457
:1042D00080912B028061E5CF8D3F31F480912902DE
:1042E00081608093290208958E3F21F480912902F4
:1042F0008260F7CF8F3FB9F7809129028460F1CFB8
:10430000803FC1F480912D0287FD10922D02809193
:104310002C0281110EC080912D0281110AC0809162
:104320002E02811106C080912F02811102C01092CD
:104330002A020895813F29F480912D0218162CF34A
:10434000E6CF90912C02823F29F497FFE0CF1092A4
:104350002C02DDCF833F19F41916CCF3D8CF893F57
:1043600039F480912E02181694F610922E02CFCFB7
:104370008A3F29F480912E0287FFC9CFF6CF8B3F69
:1043800039F480912F0287FFC2CF10922F02BFCF46
:104390008C3F29F480912F021816BCF3B8CF843FCC
:1043A00031F480912B028E7F80932B02B0CF853F1A
:1043B00021F480912B028D7FF7CF863F21F48091ED
:1043C0002B028B7FF1CF873F21F480912B02877FD7
:1043D000EBCF883F21F480912B028F7EE5CF8D3F7C
:1043E00031F4809129028E7F8093290290CF8E3FF5
:1043F00021F4809129028D7FF7CF8F3F09F087CF7D
:10440000809129028B7FF0CF8BE292E00E94D51140
:104410000E94A71E909328028093270208951F935D
:10442000CF93DF9380912702909128020E94B31EC0
:10443000AC0190912A029923D1F02091070130E03C
:104440004217530780F080912C02C0912D02D09129
:104450002E0210912F02811111C0C1117FC0D11104
:104460007DC011117BC0DF91CF911F9108952091E4
:1044700008018AE0289F90011124E2CF9F3F19F0A4
:104480009F5F90932A02181624F40E94992080932B
:104490002C0280912C0287FF05C00E9499208195F3
:1044A00080932C021C1624F40E94992080932D02E4
:1044B00080912D0287FF05C00E94992081958093ED
:1044C0002D0260912C02662331F1C0912D02CC2384
:1044D00011F1062E000C770B880B990B0E947A2A9B
:1044E00023E333E343E35FE30E94DE2A0E94422A90
:1044F00060932C026C2FCC0F770B880B990B0E94CA
:104500007A2A23E333E343E35FE30E94DE2A0E9437
:10451000422A60932D021D1624F40E94E12080930C
:104520002E0280912E0287FF05C00E94E120819516
:1045300080932E02111624F40E94E12080932F0212
:1045400080912F0287FF05C00E94E1208195809312
:104550002F02DF91CF911F910C9404229F3F09F00D
:104560008FCFA0CFEBE2F2E085E0DF011D928A95CC
:10457000E9F710922A021092290208950E94F71D6D
:10458000811102C00E94D11D0E941D1E80937E02D7
:1045900080FF03C086950C94CE0880E0FCCF80910C
:1045A0007E02982F9695292F30E02330310534F480
:1045B0009F5F990F8170892B80937E0280917E028C
:1045C000816080937E020E94211E80917E028695EA
:1045D0000C94CE0890917E02892F869591F0815897
:1045E000880F9170892B80937E028E7F91E009F471
:1045F00090E080917E0290FB80F980937E020E9481
:10460000211E80917E0286950C94CE0880917E02B8
:10461000982F909590FB80F980937E020E94211E36
:1046200080917E0280FF03C086950C94CE0880E0C6
:10463000FCCF90917E02892F86958F5F8F77917046
:104640008430B8F4880F892B80937E0280917E029B
:104650008E7F91E009F490E080917E0290FB80F9DA
:1046600080937E020E94211E80917E0286950C948A
:10467000CE0890937E02EACF90917E02292F269554
:104680008227880F9170982B90937E029E7F21E065
:1046900009F420E080917E0220FB80F980937E0265
:1046A0000E94211E80917E0286950C94CE088091F6
:1046B00050020895CF93DF9300D01F92CDB7DEB79D
:1046C0009C0180918302843019F593E099833B83A8
:1046D0002A839093E9008FEF9091E800815095FD37
:1046E00006C095ED9A95F1F700008111F5CF809104
:1046F000E80085FF0DC040E050E063E070E0CE01CF
:1047000001960E94B7258091E8008E778093E8009B
:104710000F900F900F90DF91CF910895CF93DF937B
:1047200000D01F92CDB7DEB720918302243031F53F
:1047300022E02983805891099B838A8383E08093B8
:10474000E9008FEF9091E800815095FD06C095ED4E
:104750009A95F1F700008111F5CF8091E80085FF6F
:104760000DC040E050E063E070E0CE0101960E9491
:10477000B7258091E8008E778093E8000F900F9026
:104780000F90DF91CF9108959C0180918302843036
:10479000F9F482E08093E9009FEF8091E800915066
:1047A00085FD06C085ED8A95F1F700009111F5CFE2
:1047B0008091E80085FF0CC040E050E065E070E0CB
:1047C000C9010E94B7258091E8008E778093E800A8
:1047D0000895CF93DF93EC0180918302843071F5CB
:1047E00090911301992369F190917C0297FF29C060
:1047F0008093E9008FEF9091E800815095FD06C00D
:1048000095E19A95F1F700008111F5CF8091E800CC
:1048100085FF14C040E050E060E270E0CE010E94ED
:10482000B7258091E8008E778093E80080E2FE0152
:10483000A0E3B2E001900D928A95E1F7DF91CF916C
:10484000089581E08093E9008FEF9091E800815016
:1048500095FD06C095ED9A95F1F700008111F5CF11
:104860008091E80085FFEACF40E050E068E070E02A
:10487000D5CF80918202811109C00E9444270E94F5
:10488000A1278091E20084608093E2000895109255
:1048900082020895089508950C946D1E42E061EC23
:1048A00081E00E94C12642E061EC82E00E94C126C4
:1048B00042E061EC83E00E94C12642E261EC84E0C8
:1048C0000C94C12680918502833009F455C030F4E0
:1048D000813071F1823009F491C008958A3009F471
:1048E0007DC08B3009F463C0893009F044C08091E9
:1048F0008402813209F03FC0809188029091890240
:10490000009711F00397B9F58091E800877F8093B5
:10491000E8008091E80082FF2AC08091F100809336
:1049200050028091E8008B778093E8000C94F62683
:1049300080918402813AF9F48091E800877F809326
:10494000E8008091880290918902892B61F460E2ED
:1049500080E392E070E00E9406268091E8008B7769
:104960008093E800089560E080E090E0F3CF8091CC
:1049700083028111CECF089580918402813AD9F7C4
:104980008091880290918902892BA9F78091E80093
:10499000877F8093E8008091E80080FFFCCF8091C2
:1049A00013018093F1008091E8008E77BDCF809154
:1049B0008402813201F78091880290918902892BCB
:1049C000D1F68091E800877F8093E8000E94F62668
:1049D00080918602809313010C94C1168091840209
:1049E000813249F68091E800877F8093E8000E9439
:1049F000F626809187028093510208958091840267
:104A0000813A09F0B8CF8091E800877F8093E80071
:104A10008091E80080FFFCCF80915102C2CF84B723
:104A2000877F84BF0FB6F894A89580916000886155
:104A300080936000109260000FBE80E88093610058
:104A4000109261000E940D120E9444270E94A1272B
:104A50008091E20084608093E20078940E94262A8C
:104A60000E940F1289E091E00E94B91180918302A7
:104A7000853029F00E9419120E948611F7CF0E94FA
:104A8000261E80918102882389F30E94581E882364
:104A900069F30E94A125EACF292F3327233031055E
:104AA00079F158F421303105F1F02230310519F156
:104AB00080E090E020E030E01AC02132310599F129
:104AC00022323105A9F7643098F770E0FB01EE0F50
:104AD000FF1FE45DFE4F20813181685D7E4FFB0149
:104AE000808190E004C082E190E026EB3CE0FA0196
:104AF0003183208308958DE690E029E43CE0F7CFF0
:104B000099278130910561F028F0029789F6E9E153
:104B1000FCE002C0E5E4FCE0849190E09F01E7CF77
:104B2000EDE2FCE0F9CF643008F0C2CFE62FF0E010
:104B3000EE0FFF1FEC5CFE4F2081318189E090E099
:104B4000D6CF80E189BD82E189BD09B400FEFDCFE9
:104B50008091D8008F7D8093D8008091E0008260A2
:104B60008093E0008091E00081FDFCCF0895AF923A
:104B7000BF92DF92EF92FF920F931F93CF93DF9339
:104B8000EC018B017A010E941527D82E811124C0D7
:104B9000E114F10439F0F70180819181081B190BB0
:104BA000C80FD91FA12CB12C01151105A9F08091B6
:104BB000E80085FD22C08091E8008E778093E800B0
:104BC000E114F104A1F0F70180819181A80EB91ED2
:104BD000B182A08285E0D82E8D2DDF91CF911F91DB
:104BE0000F91FF90EF90DF90BF90AF9008950E94DB
:104BF00015278823C9F2D82EEFCF89918093F10031
:104C000001501109FFEFAF1ABF0ACECF20918A02DF
:104C100030918B0226173707A8F06115710529F42A
:104C20002091E8002E772093E800FC0120E0611538
:104C3000710551F4211108C08091E80082FF33C052
:104C400080E00895B901F1CF809183028823B9F102
:104C50008530B9F18091E80083FD2FC08091E80094
:104C600082FDEACF8091E80080FFE1CF2091F30040
:104C70008091F20090E0922B6115710519F0883057
:104C8000910550F021E0089709F020E08091E800BC
:104C90008E778093E800CBCF21912093F100615073
:104CA00071090196E9CF80918302882341F0853014
:104CB00041F08091E80083FFBFCF81E0089582E05A
:104CC000089583E0089520918A0230918B0226177F
:104CD0003707A8F06115710529F42091E8002E77B7
:104CE0002093E800FC0120E06115710551F42111C9
:104CF00008C08091E80082FF34C080E00895B901C7
:104D0000F1CF809183028823C1F18530C1F1809178
:104D1000E80083FD30C08091E80082FDEACF8091F9
:104D2000E80080FFE1CF2091F3008091F20090E055
:104D3000922B6115710519F08830910550F021E032
:104D4000089709F020E08091E8008E778093E800D2
:104D5000CBCF24912093F1003196615071090196D7
:104D6000E8CF80918302882341F0853041F0809123
:104D7000E80083FFBECF81E0089582E0089583E0DC
:104D80000895982F973028F08F708093E90081E084
:104D900008959093E900981751F07091EC002091DC
:104DA000ED005091F00021FD06C09F5FEBCF242F56
:104DB000762F50E0F8CF3091EB003E7F3093EB0040
:104DC0003091ED003D7F3093ED003091EB0031608C
:104DD0003093EB007093EC002093ED005093F000C3
:104DE0002091EE0027FDE1CF80E0089580918402BC
:104DF00087FF13C08091E80082FF06C08091E80021
:104E00008B778093E80004C0809183028111F2CFF8
:104E10000895809183028823D9F38091E80080FF70
:104E2000F8CF8091E8008E77ECCF2091E4003091AC
:104E3000E50085E69091EC0090FD20C09091E8009F
:104E400092FD20C090918302992391F0953091F0CA
:104E50009091EB0095FD10C04091E4005091E50069
:104E60004217530739F381509A0121F784E00895DE
:104E700082E0089583E0089581E008959091E8002C
:104E800090FFE0CF80E008950E94B2270E94BA27E9
:104E9000E0EEF0E0808181608083E8EDF0E08081E9
:104EA0008F77808319BCA7EDB0E08C918E7F8C93B7
:104EB00080818F7E80831092820208950F931F93CA
:104EC000CF93DF930E94B2270E94BA27C8EDD0E0AB
:104ED00088818F77888388818068888388818F7DA7
:104EE000888319BC1092830210927F021092810273
:104EF0001092800200EE10E0F80180818B7F8083A9
:104F000088818160888342E060E080E00E94C12661
:104F1000E1EEF0E080818E7F8083E2EEF0E0808140
:104F200081608083808188608083F80180818E7FAA
:104F30008083888180618883DF91CF911F910F9159
:104F40000895E8EDF0E080818F7E8083E7EDF0E06A
:104F500080818160808384E082BF81E080938202CF
:104F60000C945E27E8EDF0E080818E7F80831092C4
:104F7000E20008951092DA001092E10008951F9265
:104F80000F920FB60F9211242F933F934F935F937D
:104F90006F937F938F939F93AF93BF93EF93FF9301
:104FA0008091E10082FF0BC08091E20082FF07C088
:104FB0008091E1008B7F8093E1000E94252A8091FF
:104FC000DA0080FF19C08091D80080FF15C0809161
:104FD000DA008E7F8093DA008091D90080FF94C040
:104FE00080E189BD82E189BD09B400FEFDCF81E089
:104FF000809383020E9439248091E10080FF19C0D0
:105000008091E20080FF15C08091E2008E7F809346
:10501000E2008091E20080618093E2008091D800FC
:1050200080628093D80019BC85E0809383020E943F
:105030004B248091E10084FF29C08091E20084FF2D
:1050400025C080E189BD82E189BD09B400FEFDCFA4
:105050008091D8008F7D8093D8008091E1008F7E71
:105060008093E1008091E2008F7E8093E200809146
:10507000E20081608093E20080917F02882309F43E
:1050800049C084E0809383020E944C248091E10017
:1050900083FF29C08091E20083FF25C08091E10059
:1050A000877F8093E10082E08093830210927F02E9
:1050B0008091E1008E7F8093E1008091E2008E7FFD
:1050C0008093E2008091E20080618093E20042E000
:1050D00060E080E00E94C1268091F00088608093AB
:1050E000F0000E944A24FF91EF91BF91AF919F91F0
:1050F0008F917F916F915F914F913F912F910F9081
:105100000FBE0F901F90189519BC109283020E9439
:10511000472472CF8091E30087FD02C081E0B2CFC7
:1051200083E0B0CF1F920F920FB60F9211242F93EE
:105130003F934F935F936F937F938F939F93AF931F
:10514000BF93CF93EF93FF93C091E900CF7080910D
:10515000EC001092E9008091F000877F8093F000CE
:1051600078940E94CE281092E9008091F000886027
:105170008093F000C093E900FF91EF91CF91BF9130
:10518000AF919F918F917F916F915F914F913F91DF
:105190002F910F900FBE0F901F9018951F93CF93D4
:1051A000DF93CDB7DEB7AA970FB6F894DEBF0FBE78
:1051B000CDBFE4E8F2E08091F100819322E0EC3889
:1051C000F207C9F70E9462248091E80083FF44C07F
:1051D0008091840290918502492F50E04A30510518
:1051E00008F03AC0FA01E950F74D0C949B2B0129C5
:1051F00025292C2925292C298029A3292C29F8297E
:10520000052A803879F0823839F5809188028F70CC
:105210008093E9008091EB0085FB882780F910924C
:10522000E90006C080918002909181029111826014
:105230009091E800977F9093E8008093F10010929E
:10524000F1008091E8008E772DC0282F2D7F21F46A
:105250008823D1F0823059F18091E80083FF0AC0A1
:105260008091E800877F8093E8008091EB00806266
:105270008093EB00AA960FB6F894DEBF0FBECDBFA9
:10528000DF91CF911F91089580918602813021F79F
:10529000933009F080E0809381021092E9008091C0
:1052A000E800877F8093E8000E94F626D5CF8091A2
:1052B00086028111F2CF809188028F7069F280930B
:1052C000E9002091EB0020FFE8CF933031F480918A
:1052D000EB0080628093EB00E0CF9091EB00906157
:1052E0009093EB0021E030E001C0220F8A95EAF7AD
:1052F0002093EA001092EA008091EB008860EACFE8
:105300008111AACF109186021F778091E3008078E7
:10531000812B8093E3008091E800877F8093E800F1
:105320000E94F6268091E80080FFFCCF8091E30088
:1053300080688093E300111104C082E080938302AF
:105340008BCF83E0FBCF8058823008F085CF8091EF
:105350008602909187028C3D23E09207A1F583E0BD
:105360008A838AE289834FB7F894DE01139620E09E
:105370003EE051E2E32FF0E050935700E49120FF2C
:1053800003C0E295EF703F5FEF708E2F90E0EA3040
:10539000C0F0C7968D939D932F5F243159F74FBF6F
:1053A0008091E800877F8093E8006AE270E0CE0198
:1053B00001960E9406268091E8008B778093E80092
:1053C0004BCFC096E7CFAE014F5F5F4F6091880231
:1053D0000E944C25BC01892B09F43ECF9091E80036
:1053E000977F9093E80089819A810E946326E3CF9A
:1053F000803809F031CF8091E800877F8093E80002
:1054000080917F028093F1001CCF811125CF909174
:105410008602923008F020CF8091E800877F809349
:10542000E80090937F020E94F62680917F028823F5
:1054300011F084E005C08091E30087FDFACF81E0A0
:10544000809383020E944E2407CF0895CF938091CA
:105450008302882399F0C091E900CF708091EC001D
:1054600080FD0EC080E0C82B1092E9008091E8001A
:1054700083FD0E94CE28CF70C093E900CF9108959C
:1054800080E8F1CF0E94492A6894B1110C94D82A7F
:1054900008950E94BD2A88F09F5798F0B92F992748
:1054A000B751B0F0E1F0660F771F881F991F1AF00F
:1054B000BA95C9F714C0B13091F00E94D72AB1E073
:1054C00008950C94D72A672F782F8827B85F39F072
:1054D000B93FCCF3869577956795B395D9F73EF4A8
:1054E00090958095709561957F4F8F4F9F4F089550
:1054F000E89409C097FB3EF490958095709561956E
:105500007F4F8F4F9F4F9923A9F0F92F96E9BB2723
:105510009395F695879577956795B795F111F8CF9F
:10552000FAF4BB0F11F460FF1BC06F5F7F4F8F4F0A
:105530009F4F16C0882311F096E911C0772321F000
:105540009EE8872F762F05C0662371F096E8862F98
:1055500070E060E02AF09A95660F771F881FDAF7EF
:10556000880F9695879597F9089557FD9058440FA1
:10557000551F59F05F3F71F04795880F97FB991FB2
:1055800061F09F3F79F0879508951216130614066F
:10559000551FF2CF4695F1DF08C0161617061806FC
:1055A000991FF1CF86957105610508940895E894D7
:1055B000BB2766277727CB0197F908950E94F12A28
:1055C0000C94622B0E94542B38F00E945B2B20F02D
:1055D000952311F00C944B2B0C94512B11240C940B
:1055E000D82A0E94B52A70F3959FC1F3950F50E019
:1055F000551F629FF001729FBB27F00DB11D639F85
:10560000AA27F00DB11DAA1F649F6627B00DA11D2A
:10561000661F829F2227B00DA11D621F739FB00DD0
:10562000A11D621F839FA00D611D221F749F332740
:10563000A00D611D231F849F600D211D822F762FD9
:105640006A2F11249F5750409AF0F1F088234AF0B6
:10565000EE0FFF1FBB1F661F771F881F9150504022
:10566000A9F79E3F510580F00C944B2B0C94D82A3F
:105670005F3FE4F3983ED4F3869577956795B795A9
:10568000F795E7959F5FC1F7FE2B880F911D9695C3
:10569000879597F9089597F99F6780E870E060E033
:1056A00008959FEF80EC089500240A9416161706BB
:1056B00018060906089500240A9412161306140603
:1056C00005060895092E0394000C11F4882352F066
:1056D000BB0F40F4BF2B11F460FF04C06F5F7F4F1E
:1056E0008F4F9F4F0895AA1BBB1B51E107C0AA1FF4
:1056F000BB1FA617B70710F0A61BB70B881F991F73
:105700005A95A9F780959095BC01CD01089597FB16
:10571000072E16F4009407D077FD09D00E94732B52
:1057200007FC05D03EF4909581959F4F08957095A4
:1057300061957F4F0895EE0FFF1F0590F491E02DC6
:105740000994F999FECF92BD81BDF89A992780B549
:105750000895A6E1B0E044E050E00C94DB2BA8E112
:10576000B0E042E050E00C94DB2B262FF999FECFFD
:1057700092BD81BDF89A019700B4021639F01FBAA4
:1057800020BD0FB6F894FA9AF99A0FBE08950396C1
:10579000272F0E94B62B0E94B52B252F0E94B62BD7
:1057A000242F0C94B62B0196272F0E94B62B0C9415
:1057B000B52BDC01CB01FC01F999FECF06C0F2BD8F
:1057C000E1BDF89A319600B40D9241505040B8F7BF
:0657D0000895F894FFCFDC
:1057D600FF02022808140A321E5723E923C4238E27
:1057E600235A23019091929395366667F1F0C6335A
:1057F6003231303534979694404D3639840D370D15
:0C580600010DC80C5B0C740C8D0CA60C82
:00000001FF
